Enter file contents :020000040000FA
:040000000000B5281F
:08000800D12A8207203457348D
:100010005734563442340034820720344434533445
:10002000543400348207203454344F344E3449342D
:1000300054344534213400348207203445344E345E
:10004000443449344E344734213400348207203458
:100050004C34593420343D34203400348207203469
:100060004C34533420343D3420340034820754342B
:1000700052345534453420340034820746344134F8
:100080004C3453344534003482075A344F344E34A0
:1000900045343D3420340034820720345534543400
:1000A000433400348207203445345334543400340C
:1000B00082072034433453345434003482072034CC
:1000C0004D34533454340034820720345034533484
:1000D00054340034820700341F341C341F341E345F
:1000E0001F341E341F341F341E341F341E341F347B
:1000F0008207023402340034003400340134003406
:10010000003400340034023400340034003400344D
:10011000013400340034003400340234003400343C
:10012000003400340134003400340034003402342C
:10013000003400340034003401340034003400341E
:10014000003402340034003400340034013400340C
:1001500000340034003402340034003400340034FD
:1001600001340034003400340034831603130F14B8
:10017000000000000F1DB5288316031789018316A0
:100180000317880183160313811383120313870156
:100190008312031385010030831603138500FF309B
:1001A00083160313860083160313FF309500003077
:1001B000831603138700831203138B138B1BDD2815
:1001C0008C010430920083120313103090008312CC
:1001D000031340308B0083120313071516238B255E
:1001E000442589250729063073258B2548305D2550
:1001F00065305D256C305D2570305D256A25533096
:100200005D2565305D256E305D2564305D25A42457
:100210000A30C4240C30DA000B30DB000D30DC0077
:100220000E30DD005930DD002330DB005D08703911
:10023000DC00DC0E0F30DD055B083039DA00DA0E49
:100240000F30DB05831203136430BD00BF00C10013
:100250006430B300B601831203138B170B17831698
:1002600003130C1483120313101498251B26D216A3
:1002700083120313B4010830B500B400D213521333
:100280004129831203136324511A492952188223E6
:100290004129D11011302302031CDF291730A4009B
:1002A00023082402031C5C2951108F30B8004F250D
:1002B0003030B8005D2585292E302302031CDF294C
:1002C0003630A40023082402031C6E2951148F30F9
:1002D000B8004F253130B8005D2585294A3023020A
:1002E000031CDF295630A40023082402031CDF2945
:1002F000D1148F30B8004F255030B8005D25C03084
:10030000B8004F250A30B90035253608633A03197D
:100310008A29B60A51120C25CD30B8004F2550302D
:10032000B8005D252508CA00C9012C234D08B80076
:100330005D254E08B8005D2525080319A8294E083B
:10034000903EB8004F25303051183130B8005D254F
:1003500025087820A60026080319BB2901302606A7
:100360000319DA2902302606031DE629D11CE629E5
:10037000A50AA6014129D118E6292223A50AA6012A
:100380003C302506031D41292D08A7002E08A80092
:100390002F08A9003008AA003108AB003208AC00D1
:1003A000A5018F30B8004F255330B8005D25B70A3E
:1003B0005115F729D118E629A50AA60141298F3040
:1003C000B8004F252030B8005D2527241325511291
:1003D000A5015111CD30B8004F252030B8005D2562
:1003E0007A242724B6080319F629B6034129C40143
:1003F000C501C601C701C80101302718C407023072
:10040000A718C40704302719C4070830A719C40760
:100410000A30271AC4071430A71AC4072830271B2C
:10042000C40701302818C5070230A818C5070430D2
:100430002819C5070830A819C5070A30281AC507A2
:100440001430A81AC50701302A1AC7070230AA1AA1
:10045000C70704302A1BC7070830AA1BC7070A3082
:100460002918C7071430A918C70728302919C70742
:100470005030A919C7076430291E412AC70703183D
:10048000C60AC830A91AC7070318C60A01302C1AB1
:10049000C8070230AC1AC80704302C1BC807083044
:1004A000AC1BC8070A302B18C8071430AB18C80794
:1004B00028302B19C8075030AB19C8075215AC1D8E
:1004C00052114408BE004508C000D2172C1CD2139C
:1004D0005217AC1C52132C185213B4080319A52A36
:1004E000341E7F2A34080F39C0074008183C03190E
:1004F0007D2A8E2A1830C0028E2AC0018E2A340826
:100500000F39400203197D2A031C8A2A34080F3947
:10051000C0028E2A40083402183CC000341A9D2ABA
:1005200045084002031CA52AC708031D9B2AC608CC
:100530000319A52AC603C703A52A450840020318C4
:10054000A52A0130C7070318C60A4608C90047088C
:10055000CA00A10121086A20A60002302106031D5D
:10056000B32A5219A60A2608CA020319C52A031873
:10057000BD2A49080319BF2AC903A10AAA2A2108CA
:10058000C30026084A07C200CD2A49080319C92A10
:10059000BD2A2108C3002608C2003B30BC00BD01B3
:1005A0004129FD000308FE000A08FF00831203131F
:1005B0000C1013308F0288308E02031C8F03A20AA6
:1005C000D11DE92A861DED2A2208A300D11151165A
:1005D000ED2A8619ED2AA201D115B30B0F2B643039
:1005E000B3003C0A52143C3A0319F82ABC0A0F2BF8
:1005F000BC013E0A3C3A0319FF2ABE0A0F2BBE017A
:10060000B701400A183A0319072BC00A0F2BC00183
:1006100051190F2B0130C7070318C60A0F2B7F088B
:100620008A007E088300FD0E7D0E090083120313ED
:10063000203084008001040A7F3A0319212B840AA8
:100640001A2B08000314511C0310B20DB10DB00D8C
:10065000AF0DAE0DAD0D08003030CE00CD00CC009A
:10066000CB0003304902031C462B0330C902E8309B
:100670004A02031C3F2BE830CA02CB0A312B49083F
:100680000319442BC9033B2B0330C90764304A02CA
:10069000031C4E2B6430CA02CC0A462B49080319AE
:1006A000532BC9034A2B0A30CA02031C592BCD0A0B
:1006B000532B0A30CA074A08CE0708000D308400C1
:1006C0004F0880000C3084005008800083160C1501
:1006D0008B138B1B682B55308D00AA308D008C142A
:1006E0008C18702B0C118B17831208000D308400AE
:1006F0004F08800083160C1483120C30840000080D
:10070000D00008005210400841060319992B803090
:100710004F254008C100CA00C9012C234D08DA004A
:10072000B8005D254E08DB00B8005D253A30B80002
:100730005D253E083F060319532C033070253E0803
:10074000BF00CA00C9012C234D08DC00B8005D259C
:100750004E08DD00B8005D253A30B8005D250A304E
:10076000B80070253B253B253B250830B800702597
:100770003508B400D21BB4032D30341E2B30B80022
:100780005D2534080F39CA00C9012C234D08303AC1
:100790000319CD2B4D08B8005D254E08B8005D2526
:1007A00035080319E32B3508083A0319ED2B3508F2
:1007B000073A0319F62B3508063A0319FF2B3508BB
:1007C000053A0319082C84000408840A4C200038D8
:1007D00003191D2C5D25E42B1D2C84000408840ABC
:1007E000642000380319112C5D25EE2B84000408C9
:1007F000840A5E2000380319112C5D25F72B840034
:100800000408840A582000380319112C5D25002C97
:1008100084000408840A522000380319112C5D2535
:10082000092C0C3070255330D21B44305D250A3022
:1008300070252030521B7E305D250E3070252A3009
:10084000D212511D2030B8005D25511DD216250849
:1008500003192B2C532C6D254308CA00C9012C23E6
:100860004D08B8005D254E08B8005D252F30B80052
:100870005D254208CA00C9012C234D08B8005D253A
:100880004E08B8005D252F30B8005D254808CA0025
:10089000C9012C234D08B8005D254E08B8005D2520
:1008A0003B253B25B9018630B8004F253C08CA00DE
:1008B000C9012C234D08B8005D254E08B8005D2500
:1008C0003C08D72408000A3073258B252508031D12
:1008D000772C5230B8005D253608CA00C9012C2398
:1008E0004D08B8005D254E08B8005D25080053305E
:1008F000B8005D253708CA00C9012C234D08B8008F
:100900005D254E08B8005D2508000130BA00C330EF
:1009100091009E2C0130BA00823091009E2C023052
:10092000BA0091019E2C1430BA0091019E2C3C30EB
:10093000BA0091019E2CF030BA0091018C108C1CF1
:100940009F2CBA0B9E2C0800831203130710000083
:100950000C3000002125013021250714071000006C
:10096000000083120313071009302125FF302125D1
:10097000071407108312031307100B3021250530CD
:10098000212507140710080083120313071007100E
:1009900021250630212507140710080083120313B0
:1009A0000A30071021250130212507140800831281
:1009B00003130710000000000710013021255A081A
:1009C000212507140710023021255B082125071473
:1009D0000710033021255C08212507140710043077
:1009E00021255D0821250714071005302125003039
:1009F0003C1C8030212507143C08482608003C1C7C
:100A0000032D1226042D1526080007100630212577
:100A100000302125071408000710063021258030FA
:100A20002125071408000710063021250030212554
:100A30000714080007100630212553082125071444
:100A4000080083120313E3000830E40007120000DB
:100A50008710E31B8714E30D07160000E40B262D17
:100A60008710071208001430B9002030B8005D2547
:100A7000B90B352D08002030B8005D25080005169B
:100A8000000005128A2408008B2520304F252830CD
:100A90004F2506304F250C304F257C250034B800FB
:100AA000380E0F3985008512932538080F398500D7
:100AB0008512932580250034303EB800380E0F395A
:100AC00085008516932538080F39850085169325EE
:100AD0008025003480304F250034C0304F2500344D
:100AE000803E4F250034C03E4F2500340D304F2549
:100AF00000340C304F25003401304F25912500344F
:100B000005300000000000000000FF3E031D812DA5
:100B10000800FF30812D6430812D3230812D14305A
:100B2000812D0F30812D05160000051200340800BC
:100B3000831203130517831203138713871283127B
:100B40000313831203130513403091260A309126B4
:100B50000830912683120313051700000513403057
:100B600091260B3091260830912683120313051726
:100B70000000051340309126003091260030912668
:100B8000831203130517000005134230912600302D
:100B900091260030912683120313051700000513D8
:100BA00044309126003091260030912683120313A1
:100BB00005170000051346309126003091260030BD
:100BC0009126831203130517000005134030912668
:100BD000013091260030912683120313051700007F
:100BE0000513423091260130912600309126831260
:100BF0000313051700000513443091260130912698
:100C000000309126831203130517000005134630A8
:100C10009126013091260030912683120313051787
:100C200000001B2E5530EF001C2EAA30EF001C2EAA
:100C3000FF30EF001C2EEF01EF090430EE004030D2
:100C4000ED0028263426ED0AED0AEE0B212E0800D1
:100C500005136D089126123091266F08912605170D
:100C600000001230E6000800000005136D08912610
:100C7000133091266D08463C0319422E6F089126C9
:100C800005170800D21A462E6F133E2E6F173E2E00
:100C9000EC00031D4C2E1B26EC0A03104030ED0027
:100CA00083100130EB006B08EF00EF091230E60013
:100CB0006C0803197D2EEC0B5E2E7D2E0310EB0DC0
:100CC0000318632E532E031083100130EB006B08C2
:100CD000EF00EF091330E6006C080319872EEC0BC8
:100CE000722E872E0310EB0D0318772E672EFF3020
:100CF000EF003426ED0AED0A502E28266D08E50097
:100D00006F08E700FF30EF00342634260800342651
:100D10006D08E5006F08E700FF30EF0028263C086B
:100D200008008312031383120313E3000310083037
:100D3000E400E31B8717E30D000087168712871373
:100D4000E40B992E080083120313BC01061ABC0A97
:100D5000000000000000061AAB2E3C083B3A0319C5
:100D6000A32E53243C084826A62E83120313061AEA
:100D7000B50A000000003508043A031DC02EB50175
:020D8000080069
:02400E00C420CC
:02401000FF3E71
:00000001FF
